{"abi":[{"type":"receive","stateMutability":"payable"},{"type":"function","name":"AMOUNT","inputs":[],"outputs":[{"name":"","type":"uint256","internalType":"uint256"}],"stateMutability":"view"},{"type":"function","name":"COOLDOWN","inputs":[],"outputs":[{"name":"","type":"uint256","internalType":"uint256"}],"stateMutability":"view"},{"type":"function","name":"claim","inputs":[],"outputs":[],"stateMutability":"nonpayable"},{"type":"function","name":"getBalance","inputs":[],"outputs":[{"name":"","type":"uint256","internalType":"uint256"}],"stateMutability":"view"},{"type":"function","name":"getLastClaimTime","inputs":[{"name":"user","type":"address","internalType":"address"}],"outputs":[{"name":"","type":"uint256","internalType":"uint256"}],"stateMutability":"view"},{"type":"function","name":"lastClaimed","inputs":[{"name":"","type":"address","internalType":"address"}],"outputs":[{"name":"","type":"uint256","internalType":"uint256"}],"stateMutability":"view"}],"bytecode":{"object":"0x6080604052348015600e575f5ffd5b5061075a8061001c5f395ff3fe608060405260043610610058575f3560e01c8063013eba921461006357806312065fe01461009f5780634e71d92d146100c9578063a2724a4d146100df578063a680e0bc14610109578063d1789176146101455761005f565b3661005f57005b5f5ffd5b34801561006e575f5ffd5b5061008960048036038101906100849190610477565b61016f565b60405161009691906104ba565b60405180910390f35b3480156100aa575f5ffd5b506100b3610183565b6040516100c091906104ba565b60405180910390f35b3480156100d4575f5ffd5b506100dd61018a565b005b3480156100ea575f5ffd5b506100f36103c2565b60405161010091906104ba565b60405180910390f35b348015610114575f5ffd5b5061012f600480360381019061012a9190610477565b6103c9565b60405161013c91906104ba565b60405180910390f35b348015610150575f5ffd5b5061015961040e565b60405161016691906104ba565b60405180910390f35b5f602052805f5260405f205f915090505481565b5f47905090565b5f73ffffffffffffffffffffffffffffffffffffffff163373ffffffffffffffffffffffffffffffffffffffff16036101f8576040517f08c379a00000000000000000000000000000000000000000000000000000000081526004016101ef9061052d565b60405180910390fd5b620151805f5f3373ffffffffffffffffffffffffffffffffffffffff1673ffffffffffffffffffffffffffffffffffffffff1681526020019081526020015f20546102439190610578565b421015610285576040517f08c379a000000000000000000000000000000000000000000000000000000000815260040161027c906105f5565b60405180910390fd5b66038d7ea4c680004710156102cf576040517f08c379a00000000000000000000000000000000000000000000000000000000081526004016102c69061065d565b60405180910390fd5b425f5f3373ffffffffffffffffffffffffffffffffffffffff1673ffffffffffffffffffffffffffffffffffffffff1681526020019081526020015f20819055505f3373ffffffffffffffffffffffffffffffffffffffff1666038d7ea4c6800060405161033c906106a8565b5f6040518083038185875af1925050503d805f8114610376576040519150601f19603f3d011682016040523d82523d5f602084013e61037b565b606091505b50509050806103bf576040517f08c379a00000000000000000000000000000000000000000000000000000000081526004016103b690610706565b60405180910390fd5b50565b6201518081565b5f5f5f8373ffffffffffffffffffffffffffffffffffffffff1673ffffffffffffffffffffffffffffffffffffffff1681526020019081526020015f20549050919050565b66038d7ea4c6800081565b5f5ffd5b5f73ffffffffffffffffffffffffffffffffffffffff82169050919050565b5f6104468261041d565b9050919050565b6104568161043c565b8114610460575f5ffd5b50565b5f813590506104718161044d565b92915050565b5f6020828403121561048c5761048b610419565b5b5f61049984828501610463565b91505092915050565b5f819050919050565b6104b4816104a2565b82525050565b5f6020820190506104cd5f8301846104ab565b92915050565b5f82825260208201905092915050565b7f5a45524f5f4144445245535300000000000000000000000000000000000000005f82015250565b5f610517600c836104d3565b9150610522826104e3565b602082019050919050565b5f6020820190508181035f8301526105448161050b565b9050919050565b7f4e487b71000000000000000000000000000000000000000000000000000000005f52601160045260245ffd5b5f610582826104a2565b915061058d836104a2565b92508282019050808211156105a5576105a461054b565b5b92915050565b7f434f4f4c444f574e5f41435449564500000000000000000000000000000000005f82015250565b5f6105df600f836104d3565b91506105ea826105ab565b602082019050919050565b5f6020820190508181035f83015261060c816105d3565b9050919050565b7f494e53554646494349454e545f42414c414e43450000000000000000000000005f82015250565b5f6106476014836104d3565b915061065282610613565b602082019050919050565b5f6020820190508181035f8301526106748161063b565b9050919050565b5f81905092915050565b50565b5f6106935f8361067b565b915061069e82610685565b5f82019050919050565b5f6106b282610688565b9150819050919050565b7f5452414e534645525f4641494c454400000000000000000000000000000000005f82015250565b5f6106f0600f836104d3565b91506106fb826106bc565b602082019050919050565b5f6020820190508181035f83015261071d816106e4565b905091905056fea2646970667358221220d65109984d379a32e9fa8320cec487c2ce6359f20aa01245801eaa56936c251364736f6c634300081e0033","linkReferences":{}},"methodIdentifiers":{"AMOUNT()":"d1789176","COOLDOWN()":"a2724a4d","claim()":"4e71d92d","getBalance()":"12065fe0","getLastClaimTime(address)":"a680e0bc","lastClaimed(address)":"013eba92"},"id":20}